:100000000C945D000C9485000C9485000C94850084
:100010000C9485000C9485000C9485000C9485004C
:100020000C9485000C9485000C9485000C9485003C
:100030000C9485000C9485000C9485000C9485002C
:100040000C94A6030C9485000C9485000C948500F8
:100050000C9485000C9485000C9485000C9485000C
:100060000C9485000C9485000000000024002700FB
:100070002A0000000000250028002B0004040404CE
:100080000404040402020202020203030303030342
:10009000010204081020408001020408102001021F
:1000A00004081020000000080002010000030407FB
:1000B00000000000000000001B0511241FBECFEF50
:1000C000D8E0DEBFCDBF11E0A0E0B1E0E6E1FBE0AB
:1000D00002C005900D92A634B107D9F721E0A6E43D
:1000E000B1E001C01D92A936B207E1F710E0CDE5FD
:1000F000D0E004C02197FE010E948305CC35D107D2
:10010000C9F70E94F0030C9489050C94000090E05C
:10011000FC01EC55FF4F2491FC01E057FF4F349157
:10012000FC01E458FF4FE491EE23C9F0222339F09B
:10013000233001F1A8F4213019F1223029F1F0E047
:10014000EE0FFF1FEE58FF4FA591B4918FB7F894B3
:10015000EC91611126C030953E233C938FBF0895EA
:100160002730A9F02830C9F0243049F78091800069
:100170008F7D03C0809180008F7780938000DFCFD8
:1001800084B58F7784BDDBCF84B58F7DFBCF809125
:10019000B0008F778093B000D2CF8091B0008F7D78
:1001A000F9CF3E2BDACFCF93DF9390E0FC01E057FD
:1001B000FF4F249184589F4FFC0184918823D1F0F4
:1001C00090E0880F991FFC01E859FF4FA591B49169
:1001D000FC01EE58FF4FC591D49161110EC09FB73D
:1001E000F8948C91E22FE0958E238C932881E22362
:1001F000E8839FBFDF91CF9108958FB7F894EC917A
:10020000E22BEC938FBFF6CF3FB7F89480914D016E
:1002100090914E01A0914F01B091500126B5A89B3D
:1002200005C02F3F19F00196A11DB11D3FBFBA2F88
:10023000A92F982F8827BC01CD01620F711D811D48
:10024000911D42E0660F771F881F991F4A95D1F7CD
:1002500008958F929F92AF92BF92CF92DF92EF92CA
:10026000FF924B015C010E9404016B017C010E9422
:1002700004016C197D098E099F09683E7340810550
:100280009105A8F321E0821A9108A108B10888EE2F
:10029000C80E83E0D81EE11CF11C81149104A10456
:1002A000B10429F7FF90EF90DF90CF90BF90AF900F
:1002B0009F908F900895AF92BF92CF92DF92EF926E
:1002C000FF920F931F93CF93DF936C017B018B0100
:1002D000040F151FEB015E01AE18BF08C017D10750
:1002E00059F06991D601ED91FC910190F081E02DDA
:1002F000C6010995892B79F7C501DF91CF911F912F
:100300000F91FF90EF90DF90CF90BF90AF90089546
:10031000089590E080E0089580E480937C008091CF
:100320007A00806480937A0080917A0086FDFCCF09
:10033000809178009091790064E670E00E94390520
:100340006A307105FCF47093470160934601809117
:1003500046019091470118161906CCF461E08DE032
:100360000E94870068EC70E080E090E00E94290124
:1003700060E08DE00E94870068EC70E080E090E033
:100380000C9429011092470110924601E0CF089584
:100390008F929F92AF92BF920F931F93CF93DF9351
:1003A000CDB7DEB7A1970FB6F894DEBF0FBECDBFB5
:1003B00019A2423008F44AE08E010F5D1F4F842ECF
:1003C000912CB12CA12CA50194010E944D05E62F82
:1003D000B901CA01EA3044F5E05DD801EE938D0120
:1003E000232B242B252B79F790E080E0109769F0E0
:1003F000FD0101900020E9F73197AF014A1B5B0B2B
:10040000BD0181E591E00E945B01A1960FB6F894D1
:10041000DEBF0FBECDBFDF91CF911F910F91BF9077
:10042000AF909F908F900895E95CD7CFFC01019029
:100430000020E9F73197AF01481B590BBC0181E55A
:1004400091E00C945B01CF93DF93EC0160E08E812F
:100450000E94870061E08E810E94870060E08E81AB
:100460000E9487008BE891E00197F1F7DF91CF912F
:100470000895CF92DF92EF92FF920F931F93CF9345
:10048000DF936C017C0187E0E80EF11CD0E0C0E056
:10049000062F10E0B8010C2E02C0759567950A94DE
:1004A000E2F76170F70181917F010E948700219638
:1004B000C430D10579F7C601DF91CF911F910F911B
:1004C000FF90EF90DF90CF900C942302CF92DF92B9
:1004D000EF92FF920F931F93CF93DF93EC01F62ED1
:1004E000642F8C810E9487008D818F3F19F060E01E
:1004F0000E9487000F2D10E08F8584FF25C06E01BC
:1005000087E0C80ED11CF12CE12CB8010E2C02C0E2
:10051000759567950A94E2F76170F60181916F0114
:100520000E948700FFEFEF1AFF0A88E0E816F10447
:1005300061F7CE01DF91CF911F910F91FF90EF9066
:10054000DF90CF900C942302B80184E075956795F5
:100550008A95E1F7CE010E9439026F2DCE01DF911D
:10056000CF911F910F91FF90EF90DF90CF900C945F
:10057000390240E0682F81E591E00C94660281E049
:100580000E94B9028BE39FE10197F1F70895CF93A1
:10059000DF93823029F4909160019860909360011C
:1005A000809364011092650180E48093660180E18C
:1005B0008093670180E58093680161E08091550137
:1005C0000E94D300809156018F3F19F061E00E9494
:1005D000D30061E0809157010E94D300C1E5D1E0D2
:1005E0009E01215531408091600184FD0BC084E063
:1005F00090E021962817390744F461E08E810E942B
:10060000D300EECF88E090E0F4CF8BE39DE001973C
:10061000F1F760E0809155010E94870060E08091D1
:1006200057010E948700809156018F3F19F060E0CA
:100630000E9487008091600184FD34C063E081E501
:1006400091E00E943902CBE4D6E4CE010197F1F7A4
:1006500063E081E591E00E9439022197F1F763E0C0
:1006600081E591E00E94390283E592E00197F1F77C
:1006700062E081E591E00E94390280916001806230
:100680000E94B90284E0809361018CE00E94B9026B
:100690000E94BF0282E08093620186E0DF91CF91E9
:1006A0000C94B90280620E94B9028BE496E401972F
:1006B000F1F78091600180620E94B90283E592E0C7
:1006C0000197F1F78091600180620E94B902D5CF55
:1006D00090916401691710F06FEF690FE62FF0E059
:1006E000EF5AFE4F9489890F80680C94B90241E05B
:1006F0000E94660281E090E00895CF92DF92EF922F
:10070000FF926C01990FEE08FF08F7FE16C041E05A
:100710006DE281E591E00E94660266277727CB01B2
:100720006C197D098E099F094AE00E94C801019653
:10073000FF90EF90DF90CF9008954AE0C701B60197
:10074000FF90EF90DF90CF900C94C8011F920F9212
:100750000FB60F9211242F933F938F939F93AF93D4
:10076000BF938091490190914A01A0914B01B091B2
:100770004C013091480123E0230F2D3758F50196A5
:10078000A11DB11D209348018093490190934A0116
:10079000A0934B01B0934C0180914D0190914E017B
:1007A000A0914F01B09150010196A11DB11D809300
:1007B0004D0190934E01A0934F01B0935001BF9112
:1007C000AF919F918F913F912F910F900FBE0F90FE
:1007D0001F90189526E8230F0296A11DB11DD2CFB8
:1007E000789484B5826084BD84B5816084BD85B50C
:1007F000826085BD85B5816085BD80916E00816018
:1008000080936E00109281008091810082608093BD
:1008100081008091810081608093810080918000BF
:100820008160809380008091B10084608093B100EA
:100830008091B00081608093B00080917A008460E4
:1008400080937A0080917A00826080937A00809110
:100850007A00816080937A0080917A00806880932A
:100860007A001092C10060E08EE00E94D30061E047
:1008700088E00E94D30061E089E00E94D30061E03B
:100880008AE00E94D30061E08DE00E94D30088E4FA
:100890000E94B902C0E0D1E008E011E0699181E571
:1008A00091E00E9477030C171D07C1F782E00E94B8
:1008B000C7020E94BF0260E080E00E94680384E1FA
:1008C00091E00E94160261E080E00E94680385E2E8
:1008D00091E00E94160260ED77E080E090E00E94D7
:1008E00029010E94BF02C0E0D0E060E081E00E94E8
:1008F000680386E391E00E94160261E081E591E0E1
:100900000E94770360E087E00E94680388E391E03B
:100910000E94160261E081E591E00E94770360E0A9
:100920008DE00E9468038AE391E00E94160261E074
:1009300081E591E00E94770361E088E00E948700F2
:1009400060E089E00E94870060E08AE00E94870002
:1009500064EF71E080E090E00E9429010E948C0128
:1009600061E080E00E946803809146019091470118
:10097000181619060CF056C00E947D038CE391E016
:100980000E94160260E088E00E94870061E089E032
:100990000E94870060E08AE00E94870064EF71E0B7
:1009A00080E090E00E9429010E948C0161E086E0D5
:1009B0000E9468038091460190914701181619061C
:1009C000A4F50E947D038CE391E00E94160260E092
:1009D00088E00E94870060E089E00E94870061E073
:1009E0008AE00E94870064EF71E080E090E00E945E
:1009F00029010E948C0161E08CE00E9468038091D3
:100A00004601909147011816190694F40E947D033F
:100A10008CE391E00E941602209709F466CF0E94B1
:100A2000000063CF81E491E0ABCF81E491E0CDCFD2
:100A300081E491E0EFCFE1E5F1E0138212828CE0F6
:100A400091E09183808382E084838FEF858383E0CC
:100A5000868384E0878385E0808786E0818787E0DE
:100A600082871386148615861686178681E00C9475
:100A7000C70297FB072E16F4009407D077FD09D024
:100A80000E946F0507FC05D03EF4909581959F4F1D
:100A90000895709561957F4F0895A1E21A2EAA1BC3
:100AA000BB1BFD010DC0AA1FBB1FEE1FFF1FA2171E
:100AB000B307E407F50720F0A21BB30BE40BF50B1B
:100AC000661F771F881F991F1A9469F760957095A4
:100AD000809590959B01AC01BD01CF010895AA1BA3
:100AE000BB1B51E107C0AA1FBB1FA617B70710F019
:100AF000A61BB70B881F991F5A95A9F7809590954B
:100B0000BC01CD010895EE0FFF1F0590F491E02D7B
:060B10000994F894FFCFE8
:100B1600000404041F0E04000000000077035B01BC
:100B26008901880157656C636F6D6520746F20437A
:100B360061626C65004661756C742020446574655D
:100B46006374696F6E005200590042004B4D2020BD
:060B560000204E462000C5
:00000001FF
